{
  "_format": "hh-sol-artifact-1",
  "contractName": "SendValueToAddress",
  "sourceName": "src/contracts/SendValueToAddress.sol",
  "abi": [
    {
      "inputs": [],
      "stateMutability": "payable",
      "type": "constructor"
    },
    {
      "inputs": [
        {
          "internalType": "address payable",
          "name": "recipient",
          "type": "address"
        }
      ],
      "name": "SendValue_Send",
      "outputs": [],
      "stateMutability": "payable",
      "type": "function"
    },
    {
      "stateMutability": "payable",
      "type": "receive"
    }
  ],
  "bytecode": "0x608060405261020a806100136000396000f3fe6080604052600436106100225760003560e01c806301fad0841461002e57610029565b3661002957005b600080fd5b6100486004803603810190610043919061012a565b61004a565b005b60008173ffffffffffffffffffffffffffffffffffffffff166108fc349081150290604051600060405180830381858888f193505050509050806100c3576040517f08c379a00000000000000000000000000000000000000000000000000000000081526004016100ba906101b4565b60405180910390fd5b5050565b600080fd5b600073ffffffffffffffffffffffffffffffffffffffff82169050919050565b60006100f7826100cc565b9050919050565b610107816100ec565b811461011257600080fd5b50565b600081359050610124816100fe565b92915050565b6000602082840312156101405761013f6100c7565b5b600061014e84828501610115565b91505092915050565b600082825260208201905092915050565b7f73656e64206661696c6564000000000000000000000000000000000000000000600082015250565b600061019e600b83610157565b91506101a982610168565b602082019050919050565b600060208201905081810360008301526101cd81610191565b905091905056fea2646970667358221220138190220945781e316ab36861048b1fcfd71b634b5f656436cf3a95e933ca4d64736f6c63430008120033",
  "linkReferences": {},
  "deployedLinkReferences": {}
}